:020000040020DA
:1000000000200020911A2100F5182100F718210086
:10001000F9182100FB182100FD1821000000000044
:10002000000000000000000000000000C51A2100D0
:10003000FF18210000000000C91A21000119210049
:10004000CD1A2100D11A2100D51A2100D91A210078
:10005000DD1A2100E11A2100E51A2100E91A210028
:10006000ED1A2100F11A2100F51A2100F91A2100D8
:10007000FD1A2100011B2100051B2100091B210085
:100080000D1B2100111B2100151B2100191B210034
:10009000111921001D1B2100211B2100251B2100FE
:1000A000291B21002D1B2100311B2100351B2100A4
:1000B0001719210019192100391B21003D1B2100AE
:1000C000411B2100451B2100491B21004D1B210024
:1000D000511B2100551B2100591B21005D1B2100D4
:1000E000611B2100651B2100691B21006D1B210084
:1000F000711B2100751B2100791B21007D1B210034
:10010000811B2100851B2100891B21008D1B2100E3
:10011000911B2100951B2100991B21009D1B210093
:10012000A11B2100A51B2100A91B2100AD1B210043
:10013000B11B2100B51B2100B91B2100BD1B2100F3
:10014000C11B2100C51B2100C91B2100CD1B2100A3
:10015000D11B2100D51B2100D91B2100DD1B210053
:10016000E11B2100E51B2100E91B2100ED1B210003
:10017000F11B2100F51B2100F91B210000000000EC
:10018000FD1B2100011C2100051C2100091C210070
:100190000D1C2100111C2100151C2100191C21001F
:1001A000211921001D1C2100211C2100251C2100DA
:1001B000291C21002D1C2100311C2100351C21008F
:1001C000391C21003D1C210000000000000000003F
:1001D000000000000000000000000000000000001F
:1001E000000000000000000000000000000000000F
:1001F00000003C3C3C3C000018181818183C3C3CE3
:100200003C3C3C3C3C3C0000000000000000000086
:1002100000000018003800300030007007E01FF0C8
:100220003FF83CF878FC78C07980798079807B3C15
:100230007B3C3F783FF81FF00FC00C000C000C0017
:10024000180018000000000000000000000000007E
:1002500000000FC01FE03FF07CF8787878787800D5
:100260007800FFC0FFC0FFC03C003C003C007800AD
:100270007800FF08FFFC7FFC41F800000000000050
:10028000000000000000000000000000000000006E
:1002900000000000000000000000201077B8FFFC04
:1002A0007FF83870703870387038703838707FF870
:1002B000FFFC77B8201000000000000000000000E4
:1002C000000000000000000000000000000000002E
:1002D0000000F03C7878787838703CF01CE01FE043
:1002E0001FE07FF87FF87FF8078007807FF87FF8AE
:1002F0007FF807800780078007800000000000006B
:100300000000000000000000000000000038383845
:10031000383838383838383800000000383838383D
:10032000383838383838000000000000000000007D
:10033000000007C01FE03FF03C783C783E001F0003
:100340001F803FE07BF071F8707C783C7C1C3E1C89
:100350001F3C0FF807F003F000F800783C783E7877
:100360001FF00FF007C000000000000000000000B8
:100370000000E380E380E380000000000000000054
:10038000000000000000000000000000000000006D
:10039000000000000000000000000000000000005D
:1003A000000000000000000000000000000000004D
:1003B0000000000000000001F80007FE001E07809A
:1003C0003801C030F0C063F860631C60C60C30C6F2
:1003D0000030C60030C60030C60030C60C30631C8A
:1003E0006063F86030F0C03801C01E078007FE006F
:1003F00001F8000000000000000000000000000004
:1004000000000000000000000000000000000000EC
:1004100000003F007F80E38003803F80FF80E38017
:10042000E780FF807B8000000000000000000000EB
:1004300000000000000000000000000000000000BC
:1004400000000000000000000000000000000000AC
:10045000000000000000000000000000000000009C
:10046000071C0E381E781C703CF079E079E03CF0F7
:100470001C701E780E38071C0000000000000000F1
:10048000000000000000000000000000000000006C
:100490000000000000000000000000007FFE7FFE62
:1004A0007FFE7FFE001E001E001E001E001E001E9E
:1004B000000000000000000000000000000000003C
:1004C000000000000000000000000000000000002C
:1004D000000000000000000000000000000000001C
:1004E00000000000000000007F807F807F807F8010
:1004F00000000000000000000000000000000000FC
:1005000000000000000000000000000000000000EB
:100510000000000000000001F80007FE001E078038
:100520003801C033F0C063F860631860C31830C38B
:100530001830C3F830C3F030C33030C338306318DC
:1005400060631C60330CC03801C01E078007FE00CA
:1005500001F80000000000000000000000000000A2
:10056000000000000000000000000000FFFEFFFE91
:10057000FFFE00000000000000000000000000007E
:10058000000000000000000000000000000000006B
:10059000000000000000000000000000000000005B
:1005A000000000000000000000000000000000004B
:1005B00000001E003F0073806180618073803F00F7
:1005C0001E0000000000000000000000000000000D
:1005D000000000000000000000000000000000001B
:1005E000000000000000000000000000000000000B
:1005F0000000000003C003C003C003C003C07FFEAF
:100600007FFE7FFE7FFE03C003C003C003C003C0A4
:1006100000007FFE7FFE7FFE7FFE000000000000E6
:1006200000000000000000000000000000000000CA
:1006300000003C00FF00E70007000E001E0038002D
:100640007000FF00FF00000000000000000000003C
:10065000000000000000000000000000000000009A
:10066000000000000000000000000000000000008A
:1006700000001F003F8073800F000F000380038085
:1006800073803F001E00000000000000000000001A
:10069000000000000000000000000000000000005A
:1006A000000000000000000000000000000000004A
:1006B00000000F001E001C003800000000000000B9
:1006C000000000000000000000000000000000002A
:1006D000000000000000000000000000000000001A
:1006E000000000000000000000000000000000000A
:1006F0000000000000000000000000003C1E3C1E46
:100700003C1E3C1E3C1E3C1E3C1E3C1E3C1E3C1E19
:100710003C1E3E3E3FFE3FFE3DDE3C003C003C00BA
:100720003C003C0000000000000000000000000051
:1007300000001FFC7FFC7FFCFF38FF38FF38FF38CC
:10074000FF387F387F381F380738073807380738B1
:1007500007380738073807380738073807380738A1
:10076000073807380000000000000000000000000B
:1007700000000000003C3C3C3C0000000000000089
:100780000000000000000000000000000000000069
:100790000000000000000000000000000000000059
:1007A0000000000000000000000000000000000049
:1007B000000000000000000000003E0007000700ED
:1007C00007007C00000000000000000000000000A6
:1007D00000001C003C007C005C001C001C001C0095
:1007E0001C001C001C0000000000000000000000B5
:1007F00000000000000000000000000000000000F9
:1008000000000000000000000000000000000000E8
:1008100000001F003F807BC071C071C071C071C0FB
:100820007BC03F801F0000000000000000000000AF
:1008300000000000000000000000000000000000B8
:1008400000000000000000000000000000000000A8
:100850000000000000000000000000000000000098
:1008600071C038E03CF01C701E780F3C0F3C1E78C5
:100870001C703CF038E071C0000000000000000077
:100880000000000000000000000000000000000068
:10089000000000000000000E01C01E01C07E0380A9
:1008A0006E07800E07000E0E000E0E000E1C000ECE
:1008B0001C000E380000701C00703C00E07C00E062
:1008C000DC01C19C01C31C0383FE0703FE07001C5F
:1008D0000E001C00000000000000000000000000EE
:1008E0000000000000000000000000000000000008
:1008F000000000000000000E01C01E03807E038087
:100900006E07000E07000E0E000E1C000E1C000EDF
:1009100038000E38000070F00073FC00E39C00E02B
:100920001C01C03803C0780380E00701C00703FC46
:100930000E03FC00000000000000000000000000AA
:1009400000000000000000000000000000000000A7
:10095000000000000000003E00E07F01C0E70380CF
:100960001E03801E0700070700070E00E71C007E1D
:100970001C003C380000381C00703C00E07C00E0AB
:10098000DC01C19C01C31C0383FE0703FE07001C9E
:100990000E001C000000000000000000000000002D
:1009A0000000000000000000000000000000000047
:1009B0000000000000000000000000000000000037
:1009C00000000000000001E00001E00001E0000183
:1009D000E00000000000000001E00001E00003E092
:1009E0000007C0000F80001F00003E00003C000018
:1009F0003C0F003C1F001E1E001FFE000FFC0003EA
:100A0000F00000000000000003C00001E00000E072
:100A10000000700000000001F00003F80003F8007F
:100A200003F80007BC0007BC0007BC000F1E000F46
:100A30001E000F1E001E0F001E0F001FFF003FFFB5
:100A4000803FFF803C07807803C07803C07803C0F4
:100A5000F001E000000000000000000000000000C5
:100A6000000000000000000000780000F00000E03E
:100A70000001C00000000001F00003F80003F800CE
:100A800003F80007BC0007BC0007BC000F1E000FE6
:100A90001E000F1E001E0F001E0F001FFF003FFF55
:100AA000803FFF803C07807803C07803C07803C094
:100AB000F001E00000000000000000000000000065
:100AC000000000000000000000E00001F00003B89A
:100AD00000071C0000000001F00003F80003F8000C
:100AE00003F80007BC0007BC0007BC000F1E000F86
:100AF0001E000F1E001E0F001E0F001FFF003FFFF5
:100B0000803FFF803C07807803C07803C07803C033
:100B1000F001E00000000000000000000000000004
:100B20000000000000000000000000038C0007FC33
:100B30000006380000000001F00003F80003F80090
:100B400003F80007BC0007BC0007BC000F1E000F25
:100B50001E000F1E001E0F001E0F001FFF003FFF94
:100B6000803FFF803C07807803C07803C07803C0D3
:100B7000F001E000000000000000000000000000A4
:100B80000000000000000000000000071C00071C1F
:100B900000071C0000000001F00003F80003F8004B
:100BA00003F80007BC0007BC0007BC000F1E000FC5
:100BB0001E000F1E001E0F001E0F001FFF003FFF34
:100BC000803FFF803C07807803C07803C07803C073
:100BD000F001E00000000000000000000000000044
:100BE00000000000000000000000000000000060A5
:100BF0000000900000900001F00003F80003F800EE
:100C000003F80007BC0007BC0007BC000F1E000F64
:100C10001E000F1E001E0F001E0F001FFF003FFFD3
:100C2000803FFF803C07807803C07803C07803C012
:100C3000F001E000000000000000000000000000E3
:100C400000000000000000000000000000000000A4
:100C500000000000000000000000000000FFFFC0D6
:100C600001FFFFC001FFFFC003FFFFC003DE000064
:100C700003DE0000079E0000079FFF800F1FFF801C
:100C80000F1FFF801F1FFF801FFE00003FFE0000A0
:100C90003FFE00007FFE0000781E0000781FFFC0AE
:100CA000F01FFFC0F01FFFC0F01FFFC000000000DA
:100CB0000000000000000000000000000000000034
:100CC0000000000000000000000000000000000024
:100CD0000000000000000001FC0007FF000FFF8083
:100CE0001FFFC03F07C03C03E07C01807800007814
:100CF00000007800007800007800007801807C0314
:100D0000E03C03E03F0FC01FFFC00FFF8007FF0064
:100D100001FC0000F800001C00001C00001C000189
:100D2000F00000000000000003C00001E00000E04F
:100D3000000070000000003FFF803FFF803FFF8009
:100D40003FFF803C00003C00003C00003C00003FB6
:100D5000FF003FFF003FFF003FFF003C00003C0062
:100D6000003C00003C00003FFF803FFF803FFF80D1
:100D70003FFF8000000000000000000000000000B5
:100D8000000000000000000000780000F00000E01B
:100D90000001C0000000003FFF803FFF803FFF8058
:100DA0003FFF803C00003C00003C00003C00003F56
:100DB000FF003FFF003FFF003FFF003C00003C0002
:100DC000003C00003C00003FFF803FFF803FFF8071
:100DD0003FFF800000000000000000000000000055
:100DE000000000000000000000E00001F00003B877
:100DF00000071C000000003FFF803FFF803FFF8096
:100E00003FFF803C00003C00003C00003C00003FF5
:100E1000FF003FFF003FFF003FFF003C00003C00A1
:100E2000003C00003C00003FFF803FFF803FFF8010
:100E30003FFF8000000000000000000000000000F4
:100E40000000000000000000000000071C00071C5C
:100E500000071C000000003FFF803FFF803FFF8035
:100E60003FFF803C00003C00003C00003C00003F95
:100E7000FF003FFF003FFF003FFF003C00003C0041
:100E8000003C00003C00003FFF803FFF803FFF80B0
:100E90003FFF800000000000000000000000000094
:100EA0000000000000000000783C1C0E003C3C3CB0
:100EB0003C3C3C3C3C3C3C3C3C3C3C3C3C3C3C3C72
:100EC0003C000000000000001E3C3870003C3C3C30
:100ED0003C3C3C3C3C3C3C3C3C3C3C3C3C3C3C3C52
:100EE0003C000000000000001C3E77E3003C3C3C5E
:100EF0003C3C3C3C3C3C3C3C3C3C3C3C3C3C3C3C32
:100F00003C0000000000000000E3E3E3003C3C3C48
:100F10003C3C3C3C3C3C3C3C3C3C3C3C3C3C3C3C11
:100F20003C00000000000000000000000000000085
:100F3000000000000000003FFC003FFF003FFF807A
:100F40003FFF803C07C03C03C03C03E03C01E03C69
:100F500001E0FFE1E0FFE1E03C01E03C01E03C01B9
:100F6000E03C03C03C07C03FFF803FFF803FFF00E5
:100F70003FFC000000000000000000000000000036
:100F8000000000000000000000000001C60003FE99
:100F900000031C000000003C03C03E03C03F03C030
:100FA0003F03C03F83C03F83C03FC3C03DC3C03D7C
:100FB000E3C03CF3C03CF3C03C7BC03C3BC03C3F87
:100FC000C03C1FC03C1FC03C0FC03C0FC03C07C012
:100FD0003C07C0000000000000000000000000000E
:100FE000000000000000000001E00000F0000070C0
:100FF0000000380000000001FC0007FF000FFF8028
:101000001FFFC03F07E03C03E07C01F07800F07870
:1010100000F07800F07800F07800F07800F07C01C3
:10102000F03E03E03F07E01FFFC00FFF8007FF0017
:1010300001FC0000000000000000000000000000B3
:101040000000000000000000003C0000780000707C
:101050000000E00000000001FC0007FF000FFF801F
:101060001FFFC03F07E03C03E07C01F07800F07810
:1010700000F07800F07800F07800F07800F07C0163
:10108000F03E03E03F07E01FFFC00FFF8007FF00B7
:1010900001FC000000000000000000000000000053
:1010A000000000000000000000700000F80001DCFB
:1010B00000038E0000000001FC0007FF000FFF800E
:1010C0001FFFC03F07E03C03E07C01F07800F078B0
:1010D00000F07800F07800F07800F07800F07C0103
:1010E000F03E03E03F07E01FFFC00FFF8007FF0057
:1010F00001FC0000000000000000000000000000F3
:10110000000000000000000000000001C60003FE17
:1011100000031C0000000001FC0007FF000FFF801F
:101120001FFFC03F07E03C03E07C01F07800F0784F
:1011300000F07800F07800F07800F07800F07C01A2
:10114000F03E03E03F07E01FFFC00FFF8007FF00F6
:1011500001FC000000000000000000000000000092
:101160000000000000000000000000038E00038E5D
:1011700000038E0000000001FC0007FF000FFF804D
:101180001FFFC03F07E03C03E07C01F07800F078EF
:1011900000F07800F07800F07800F07800F07C0142
:1011A000F03E03E03F07E01FFFC00FFF8007FF0096
:1011B00001FC000000000000000000000000000032
:1011C000000000000000000000000000000000001F
:1011D00000000000000000000000101038387C7C87
:1011E0003EF81FF00FE007C00FE01FF03EF87C7CD8
:1011F000383810100000000000000000000000005F
:1012000000000000000000000000000000000000DE
:101210000000000000002001FC3007FF780FFFF005
:101220001FFFE03F07E03C07E07C0FE0781EF0780E
:101230003CF07878F078F0F079E0F07BC0F07F81D6
:10124000F03F01E03F07E03FFFC07FFF80F7FF0076
:1012500061FC002000000000000000000000000011
:10126000000000000000000001E00000F00000703D
:10127000000038000000003C03C03C03C03C03C039
:101280003C03C03C03C03C03C03C03C03C03C03C27
:1012900003C03C03C03C03C03C03C03C03C03C0350
:1012A000C03E03C03F0FC01FFF801FFF800FFF0025
:1012B00003FC00000000000000000000000000002F
:1012C0000000000000000000003C000078000070FA
:1012D0000000E0000000003C03C03C03C03C03C031
:1012E0003C03C03C03C03C03C03C03C03C03C03CC7
:1012F00003C03C03C03C03C03C03C03C03C03C03F0
:10130000C03E03C03F0FC01FFF801FFF800FFF00C4
:1013100003FC0000000000000000000000000000CE
:10132000000000000000000000700000F80001DC78
:1013300000038E000000003C03C03C03C03C03C01F
:101340003C03C03C03C03C03C03C03C03C03C03C66
:1013500003C03C03C03C03C03C03C03C03C03C038F
:10136000C03E03C03F0FC01FFF801FFF800FFF0064
:1013700003FC00000000000000000000000000006E
:101380000000000000000000000000038E00038E3B
:1013900000038E000000003C03C03C03C03C03C0BF
:1013A0003C03C03C03C03C03C03C03C03C03C03C06
:1013B00003C03C03C03C03C03C03C03C03C03C032F
:1013C000C03E03C03F0FC01FFF801FFF800FFF0004
:1013D00003FC00000000000000000000000000000E
:1013E000000000000000000000780000F00000E0B5
:1013F0000001C000000000F003C0F807C07C0F80AF
:101400003C0F003E1F001E1E000F3C000FFC00079B
:10141000F80003F00003F00001E00001E00001E04B
:101420000001E00001E00001E00001E00001E00057
:1014300001E00000000000000000000000000000CB
:10144000000000000000000000000000000000009C
:10145000000000000000001E00001E00001E000032
:101460001E00001FFC001FFE001FFF001FFF801E4C
:101470000F801E07801E07801E0F801FFF801FFF2A
:10148000001FFE001FFC001E00001E00001E0000CA
:101490001E0000000000000000000000000000002E
:1014A000000000000000000000000000000000003C
:1014B0000000000000000007E0001FF0001FF8001F
:1014C0003E78003C78003C78003CF0003CE0003D79
:1014D000E0003DE0003DF0003CFC003C7E003C3E76
:1014E000003C0F003C0F003D8F003FFF003DFE0021
:1014F0003C78000000000000000000000000000038
:1015000000000000000000000000000000000000DB
:1015100000001E000F000700038000000FE01FF016
:101520003FF878F87078007801F81FF83E787878FE
:10153000787878F87FF83FB81F3C00000000000082
:10154000000000000000000000000000000000009B
:10155000000001E003C00380070000000FE01FF05F
:101560003FF878F87078007801F81FF83E787878BE
:10157000787878F87FF83FB81F3C00000000000042
:10158000000000000000000000000000000000005B
:101590000000038007C00EE01C7000000FE01FF089
:1015A0003FF878F87078007801F81FF83E7878787E
:1015B000787878F87FF83FB81F3C00000000000002
:1015C000000000000000000000000000000000001B
:1015D000000000000E301FF018E000000FE01FF0C8
:1015E0003FF878F87078007801F81FF83E7878783E
:1015F000787878F87FF83FB81F3C000000000000C2
:1016000000000000000000000000000000000000DA
:10161000000000001C701C701C7000000FE01FF028
:101620003FF878F87078007801F81FF83E787878FD
:10163000787878F87FF83FB81F3C00000000000081
:10164000000000000000000000000000000000009A
:101650000000030004800480030000000FE01FF07E
:101660003FF878F87078007801F81FF83E787878BD
:10167000787878F87FF83FB81F3C00000000000041
:10168000000000000000000000000000000000005A
:10169000000000000000000000000000000000004A
:1016A00000000000000007E3E01FFFF83FFFF838EC
:1016B0007E3C703C1C003C1E00FFFE0FFFFE3F3FC7
:1016C000FE783C00783C007C7E187FFFFE3FEFFCFC
:1016D0001F83F00000000000000000000000000078
:1016E00000000000000000000000000000000000FA
:1016F00000000000000000000000000007E01FF0F4
:101700003FF83C7C783078007800780078007800EA
:1017100078303C7C3FF81FF807E007C000E000E0AD
:1017200000E00F800000000000000000000000004A
:1017300000000F000780038001C0000007C01FF0F9
:101740003FF83C787838783C7FFC7FFC7FFC780061
:1017500078003C303FFC1FF807E00000000000006C
:101760000000000000000000000000000000000079
:10177000000001E003C003800700000007C01FF065
:101780003FF83C787838783C7FFC7FFC7FFC780021
:1017900078003C303FFC1FF807E00000000000002C
:1017A0000000000000000000000000000000000039
:1017B0000000038007C00EE01C70000007C01FF08F
:1017C0003FF83C787838783C7FFC7FFC7FFC7800E1
:1017D00078003C303FFC1FF807E0000000000000EC
:1017E00000000000000000000000000000000000F9
:1017F000000000001C701C701C70000007C01FF06F
:101800003FF83C787838783C7FFC7FFC7FFC7800A0
:1018100078003C303FFC1FF807E0000000000000AB
:1018200000000000000000000000000000783C1CE8
:101830000E003C3C3C3C3C3C3C3C3C3C3C3C3C3C52
:101840003C0000000000000000000000001E3C38CA
:1018500070003C3C3C3C3C3C3C3C3C3C3C3C3C3CD0
:101860003C0000000000000000000000001C3E776B
:10187000E3003C3C3C3C3C3C3C3C3C3C3C3C3C3C3D
:101880003C00000000000000000000000000E3E356
:10189000E3003C3C3C3C3C3C3C3C3C3C3C3C3C3C1D
:1018A0003C000000000000000000000000000000FC
:1018B0000000000000000007980001E00001F000B7
:1018C00006780000780007BC001FFE001FFE003EE7
:1018D0003E007C1F00780F00780F00780F00780F13
:1018E00000780F003C1E003E3E001FFC000FF80079
:1018F00003E0000000000000000000000000000005
:1019000000000000000000000000000000000000D7
:10191000000000000000000000000718000FF800A1
:101920000C70000000003CF8003DFC003FFE003E53
:101930003E003C1E003C1E003C1E003C1E003C1EA7
:10194000003C1E003C1E003C1E003C1E003C1E00D5
:101950003C1E00000000000000000000000000002D
:101960000000000000000000000000000000000077
:101970000000000000000007800003C00001C0005C
:1019800000E00000000003E0000FF8001FFC003E34
:101990003E003C1E00780F00780F00780F00780F93
:1019A00000780F003C1E003E3E001FFC000FF800B8
:1019B00003E0000000000000000000000000000044
:1019C0000000000000000000000000000000000017
:1019D0000000000000000000780000F00000E000BF
:1019E00001C00000000003E0000FF8001FFC003EF3
:1019F0003E003C1E00780F00780F00780F00780F33
:101A000000780F003C1E003E3E001FFC000FF80057
:101A100003E00000000000000000000000000000E3
:101A200000000000000000000000000000000000B6
:101A30000000000000000001C00003E0000770008B
:101A40000E380000000003E0000FF8001FFC003E0D
:101A50003E003C1E00780F00780F00780F00780FD2
:101A600000780F003C1E003E3E001FFC000FF800F7
:101A700003E0000000000000000000000000000083
:101A80000000000000000000000000000000000056
:101A9000000000000000000000000718000FF80020
:101AA0000C700000000003E0000FF8001FFC003E77
:101AB0003E003C1E00780F00780F00780F00780F72
:101AC00000780F003C1E003E3E001FFC000FF80097
:101AD00003E0000000000000000000000000000023
:101AE00000000000000000000000000000000000F6
:101AF000000000000000000000000E38000E38005A
:101B00000E380000000003E0000FF8001FFC003E4C
:101B10003E003C1E00780F00780F00780F00780F11
:101B200000780F003C1E003E3E001FFC000FF80036
:101B300003E00000000000000000000000000000C2
:101B40000000000000000000000000000000000095
:101B50000000000000000780078007800780000069
:101B60000000FFFCFFFCFFFCFFFC00000000078002
:101B700007800780078000000000000000000000D0
:101B80000000000000000000000000000000000055
:101B90000000000000000000000000000000000045
:101BA00000000000020003E3000FF6001FFC003EEF
:101BB0003C003C3E00786F0078CF00788F00798F32
:101BC000007B0F007E1E003E3E001FFC003FF80021
:101BD00067E000200000000000000000000000009E
:101BE00000000000000000000000000000000000F5
:101BF0000000000000000007800003C00001C000DA
:101C000000E0000000003C1E003C1E003C1E003CAA
:101C10001E003C1E003C1E003C1E003C1E003C1EE4
:101C2000003C1E003C1E003E3E003FFE001FFE002A
:101C30000F9E0000000000000000000000000000F7
:101C40000000000000000000000000000000000094
:101C50000000000000000000780000F00000E0003C
:101C600001C0000000003C1E003C1E003C1E003C69
:101C70001E003C1E003C1E003C1E003C1E003C1E84
:101C8000003C1E003C1E003E3E003FFE001FFE00CA
:101C90000F9E000000000000000000000000000097
:101CA0000000000000000000000000000000000034
:101CB0000000000000000001C00003E00007700009
:101CC0000E38000000003C1E003C1E003C1E003C84
:101CD0001E003C1E003C1E003C1E003C1E003C1E24
:101CE000003C1E003C1E003E3E003FFE001FFE006A
:101CF0000F9E000000000000000000000000000037
:101D000000000000000000000000000000000000D3
:101D1000000000000000000000000E38000E380037
:101D20000E38000000003C1E003C1E003C1E003C23
:101D30001E003C1E003C1E003C1E003C1E003C1EC3
:101D4000003C1E003C1E003E3E003FFE001FFE0009
:101D50000F9E0000000000000000000000000000D6
:101D60000000000000000000000000000000000073
:101D7000000000F001E001C003800000F01EF01E32
:101D8000783C783C78383C783C781C701C701EF0AD
:101D90000EE00EE007C007C007C007800F807F007D
:101DA0007F007C0000000000000000000000000038
:101DB000000000000000003C00003C00003C00006F
:101DC0003C00003C00003CF0003FFC003FFE003EB9
:101DD0001E003E1F003C0F003C0F003C0F003C0F5C
:101DE000003C0F003E1F003F1E003FFE003DFC0078
:101DF0003CF0003C00003C00003C00003C00003C8B
:101E000000000000000000000000000000000000D2
:101E1000000000001C701C701C700000F01EF01E02
:101E2000783C783C78383C783C781C701C701EF00C
:101E30000EE00EE007C007C007C007800F807F00DC
:101E40007F007C000000000008080100C80120009D
:101E500008080100E80120000F0F0200080220001E
:101E60000F0F0200480220000F0F0200880220001E
:101E70000F0F0200C802200007070100080320001E
:101E80000F0F020028032000090902006803200048
:101E900014140300A80320000A0A0200080420000A
:101EA0000F0F0200480420001010020088042000D8
:101EB00009090200C80420001414030008052000CA
:101EC0000F0F0200680520000B0B0200A805200080
:101ED0000F0F0200E8052000090902002806200073
:101EE000090902006806200009090200A80620006E
:101EF00010100200E80620000F0F02002807200043
:101F0000080801006807200009090200880720006E
:101F100009090200C80720000A0A02000808200078
:101F20000F0F020048082000171703008808200040
:101F300017170300E80820001717030048092000BE
:101F400011110300A809200013130300080A200040
:101F500013130300680A200013130300C80A2000AB
:101F600013130300280B200013130300880B200019
:101F700013130300E80B20001B1B0400480C200077
:101F800014140300C80C200012120300280D2000B6
:101F900012120300880D200012120300E80D200029
:101FA00012120300480E200008080100A80E2000AD
:101FB00008080100C80E200008080100E80E2000F3
:101FC00008080100080F200014140300280F200047
:101FD00014140300880F200015150300E80F2000DB
:101FE000151503004810200015150300A810200047
:101FF00015150300081120001515030068112000B5
:1020000010100200C811200015150300081220004E
:10201000141403006812200014140300C8122000D6
:102020001414030028132000141403008813200044
:1020300012120300E81320001212030048142000BB
:1020400011110300A81420000F0F02000815200032
:102050000F0F0200481520000F0F02008815200006
:102060000F0F0200C81520000F0F020008162000F5
:102070000F0F0200481620001818030088162000D1
:102080000F0F0200E81620000F0F02002817200093
:102090000F0F0200681720000F0F0200A817200082
:1020A0000F0F0200E8172000080801002818200080
:1020B00008080100481820000808010068182000DE
:1020C000080801008818200011110300A81820003A
:1020D00011110300081920001111030068192000D4
:1020E00011110300C819200011110300281A200043
:1020F00011110300881A200011110300E81A2000B2
:102100000F0F0200481B200011110300881B200044
:1021100011110300E81B200011110300481C2000CE
:1021200011110300A81C200011110300081D20003C
:102130000F0F0200681D200011110300A81D2000D0
:102140000F0F0200081E2000A000FF00481E200004
:10215000F03F200021142100E91421002515210061
:102160002B152100000000000000000020200101CC
:1021700048212000190F140000000000000000009A
:10218000000000000000000000000000000000004F
:10219000000000000000000000000000003C3C3C8B
:1021A0003C3C3C3C3C3C181818181800003C3C3C9B
:1021B0003C000000000000000000000000000000E3
:1021C000000079E079E079E079E079E079E030C009
:1021D00000000000000000000000000000000000FF
:1021E00000000000000000000000000000000000EF
:1021F00000000000000000000000000000000000DF
:102200000000071C071C0F3C0E380E38FFFEFFFEB7
:10221000FFFE1C701C701C701C70FFFEFFFEFFFE9A
:1022200038E038E079E071C071C0000000000000C3
:10223000000000000000000000000000000000009E
:10224000018007E00FF01FF83DBC399C39803980D0
:102250003F801FC00FF007F801FC01BC019C399CB6
:102260003D9C1DBC1FF80FF007E0018001800000BD
:10227000000000000000000000000000000000005E
:10228000000000000000001F01C03F81C071C3803A
:1022900071C38071C78071C70071C70071CE003FE4
:1022A0008E001F1C00001C000038F80039FC007371
:1022B0008E00738E00E38E00E38E01C38E01C38E09
:1022C0000381FC0380F80000000000000000000013
:1022D00000000000000000000000000000000000FE
:1022E0000000000000000003E0000FF8001FFC00E9
:1022F0001E3C001E3C001E3C000F78000FF800073B
:10230000E0000FE0001FE0003FF3807CFF80787F5B
:1023100080783F00783F007C7FC03FFFE01FFBC01C
:1023200007E0800000000000000000000000000046
:102330000000000000000000000000000078787835
:1023400078787830000000000000000000000000F5
:10235000000000000000000000000000000000007D
:10236000000007000E000E001E001C003C003C0098
:1023700038007800780078007800780078007800DD
:102380007800780038003C003C001C001E000E0065
:102390000E00070000000000000000000000000028
:1023A00000007000380038003C001C001E001E00B9
:1023B0000E000F000F000F000F000F000F000F00A6
:1023C0000F000F000E001E001E001C003C00380015
:1023D0003800700000000000000000000000000055
:1023E00000000C000C00CCC0FFC01E001E0033001B
:1023F00073802100000000000000000000000000C9
:1024000000000000000000000000000000000000CC
:1024100000000000000000000000000000000000BC
:10242000000000000000000003C003C003C003C0A0
:1024300003C07FFE7FFE7FFE7FFE03C003C003C09C
:1024400003C003C000000000000000000000000006
:10245000000000000000000000000000000000007C
:10246000000000000000000000000000003C3C3CB8
:102470003C0C1C38100000000000000000000000B0
:10248000000000000000000000000000000000004C
:1024900000000000000000007F807F807F807F8040
:1024A000000000000000000000000000000000002C
:1024B000000000000000000000000000000000001C
:1024C000000000000000000000000000003C3C3C58
:1024D0003C00000000000000000000000007070EA4
:1024E0000E0E0E1C1C1C1C3838383870707070E0D2
:1024F000E0000000000000000000000000000000FC
:10250000000007C01FF01FF03C783C78783C783C16
:10251000783C783C783C783C783C783C783C783C1B
:102520003C783C781FF01FF007C00000000000005E
:10253000000000000000000000000000000000009B
:10254000000000E001E003E007E01FE03FE03DE0C5
:1025500039E021E001E001E001E001E001E001E01B
:1025600001E001E001E001E001E000000000000006
:10257000000000000000000000000000000000005B
:10258000000007E01FF03FF83C7C783C783C003CC2
:10259000003C007800F801F003E007C00F801F0046
:1025A0001E003C003FFC7FFC7FFC000000000000A0
:1025B000000000000000000000000000000000001B
:1025C00000000FC01FE03FF07CF87878007800F042
:1025D00003F003C003F00078003C003C003C783C72
:1025E000783C3C783FF81FF007C000000000000076
:1025F00000000000000000000000000000000000DB
:10260000000000F000F001F003F003F007F00EF01E
:102610000EF01CF038F038F070F0E0F0FFFCFFFC3A
:10262000FFFC00F000F000F000F0000000000000EF
:10263000000000000000000000000000000000009A
:1026400000001FF81FF83FF83C00380038003BE05E
:102650007FF07FF87878003C003C003C003C003C78
:10266000783C7C783FF01FF00FC0000000000000B5
:10267000000000000000000000000000000000005A
:10268000000003E00FF01FF83C7C3C3C3800780071
:102690007BE07FF07FF87C78783C783C783C783C35
:1026A000383C3C781FF80FF007C000000000000025
:1026B000000000000000000000000000000000001A
:1026C00000007FFC7FFC7FFC007C00F800F001E054
:1026D00003E003C007C0078007800F000F000F0052
:1026E0000F001E001E001E001E0000000000000063
:1026F00000000000000000000000000000000000DA
:1027000000000FE01FF03FF87C7C783C783C783C80
:102710003C781FF00FE01FF03C78783C783C783C28
:10272000783C7C7C3FF81FF007C0000000000000F0
:102730000000000000000000000000000000000099
:10274000000007C01FE03FF03C787838783C783CC8
:10275000783C783C3C7C3FFC1FFC0FBC003C0038C4
:1027600078787C783FF03FE00F80000000000000A8
:102770000000000000000000000000000000000059
:102780000000000000000000000000001E001E000D
:102790001E001E00000000000000000000000000FD
:1027A00000001E001E001E001E00000000000000B1
:1027B0000000000000000000000000000000000019
:1027C0000000000000000000000000001E001E00CD
:1027D0001E001E00000000000000000000000000BD
:1027E00000001E001E001E001E0006000E001C0041
:1027F00008000000000000000000000000000000D1
:1028000000000000000000000004001C00FC03FCAD
:102810000FF83FC07E0078007E003FC00FF803FC39
:1028200000FC001C0004000000000000000000008C
:102830000000000000000000000000000000000098
:102840000000000000000000000000007FFE7FFE8E
:102850007FFE7FFE000000007FFE7FFE7FFE7FFE8A
:102860000000000000000000000000000000000068
:102870000000000000000000000000000000000058
:102880000000000000000000400070007E007F801B
:102890003FE007F800FC003C00FC07F83FE07F80C9
:1028A0007E007000400000000000000000000000FA
:1028B0000000000000000000000000000000000018
:1028C0000000000000000007E0001FF8003FFC00CF
:1028D0003C3E007C1E00781E00001E00003E0000F2
:1028E0007C0001F80001F00003E00003C00003C019
:1028F0000000000000000003C00003C00003C0008F
:1029000003C0000000000000000000000000000004
:1029100000000000000000000000000000000000B7
:10292000000000000000000000000000003FC000A8
:1029300000FFF00003FFFC0007E07E000F001E0018
:102940001E3DEF001C7FE7003CFFE78039E7C380B6
:1029500039C3C38079C3C3807383C3807383C38047
:10296000738387007387870073878F0073CF9E0000
:1029700071FFFC0039FFF80038F3E0003C0003C0B1
:102980001E0007800F000F800FC03F0003FFFE00F6
:1029900001FFF800003FE000000000000000000020
:1029A0000000000000000001F00003F80003F80040
:1029B00003F80007BC0007BC0007BC000F1E000F97
:1029C0001E000F1E001E0F001E0F001FFF003FFF06
:1029D000803FFF803C07807803C07803C07803C045
:1029E000F001E00000000000000000000000000016
:1029F00000000000000000000000000000000000D7
:102A0000000000000000003FFE003FFF003FFF808D
:102A10003FFFC03C07C03C03C03C03C03C07803FB5
:102A2000FF803FFF003FFF803FFFC03C03E03C01D1
:102A3000E03C01E03C03E03FFFE03FFFC03FFF80A0
:102A40003FFF000000000000000000000000000048
:102A50000000000000000000000000000000000076
:102A60000000000000000001FC0007FF000FFF80D5
:102A70001FFFC03F07C03C03E07C01807800007866
:102A800000007800007800007800007801807C0366
:102A9000E03C03E03F0FC01FFFC00FFF8007FF00B7
:102AA00001FC000000000000000000000000000029
:102AB0000000000000000000000000000000000016
:102AC000000000000000003FFC003FFF003FFF80CF
:102AD0003FFF803C07C03C03C03C03E03C01E03CBE
:102AE00001E03C01E03C01E03C01E03C01E03C0352
:102AF000E03C03C03C07C03FFF803FFF803FFF003A
:102B00003FFC00000000000000000000000000008A
:102B100000000000000000000000000000000000B5
:102B2000000000000000003FFF803FFF803FFF806B
:102B30003FFF803C00003C00003C00003C00003FA8
:102B4000FF003FFF003FFF003FFF003C00003C0054
:102B5000003C00003C00003FFF803FFF803FFF80C3
:102B60003FFF8000000000000000000000000000A7
:102B70000000000000000000000000000000000055
:102B8000000000000000003FFF003FFF003FFF008B
:102B90003FFF003C00003C00003C00003C00003FC8
:102BA000FE003FFE003FFE003FFE003C00003C00F8
:102BB000003C00003C00003C00003C00003C0000E9
:102BC0003C000000000000000000000000000000C9
:102BD00000000000000000000000000000000000F5
:102BE0000000000000000001FC0007FF000FFF8054
:102BF0001FFFC03F07E03C03E07C018078000078C5
:102C00000000781FE0781FE0781FE0781FE03C01AB
:102C1000E03E01E03F07E01FFFE00FFFC007FF00BD
:102C200001FC0000000000000000000000000000A7
:102C30000000000000000000000000000000000094
:102C4000000000000000003C03C03C03C03C03C087
:102C50003C03C03C03C03C03C03C03C03C03C03F3A
:102C6000FFC03FFFC03FFFC03FFFC03C03C03C036D
:102C7000C03C03C03C03C03C03C03C03C03C03C099
:102C80003C03C00000000000000000000000000045
:102C9000000000000000000000000000003C3C3C80
:102CA0003C3C3C3C3C3C3C3C3C3C3C3C3C3C3C3C64
:102CB0003C000000000000000000000000000000D8
:102CC00000000078007800780078007800780078BC
:102CD000007800780078007800780078F078F07854
:102CE000F8F87FF07FF03FE01F8000000000000058
:102CF00000000000000000000000000000000000D4
:102D0000000000000000003C03E03C07C03C0F80D6
:102D10003C1F003C3E003C7C003CF8003DF0003F86
:102D2000F0003FF8003FFC003F3C003E3E003C1EF0
:102D3000003C0F003C0F803C07803C07C03C03E098
:102D40003C01E00000000000000000000000000066
:102D50000000000000000000000000000000000073
:102D6000000000000000003C00003C00003C0000AF
:102D70003C00003C00003C00003C00003C00003CEB
:102D800000003C00003C00003C00003C00003C0017
:102D9000003C00003C00003FFF003FFF003FFF0001
:102DA0003FFF0000000000000000000000000000E5
:102DB0000000000000000000000000000000000013
:102DC000000000000000007E03F07F07F07F07F0A6
:102DD0007F07F07B06F07B8EF07B8EF07B8EF07BA6
:102DE0008EF079DCF079DCF079DCF079DCF078D801
:102DF000F078F8F078F8F078F8F078F8F07870F08B
:102E00007870F000000000000000000000000000EA
:102E100000000000000000000000000000000000B2
:102E2000000000000000003C03C03E03C03F03C0A0
:102E30003F03C03F83C03F83C03FC3C03DC3C03DCD
:102E4000E3C03CF3C03CF3C03C7BC03C3BC03C3FD8
:102E5000C03C1FC03C1FC03C0FC03C0FC03C07C063
:102E60003C07C0000000000000000000000000005F
:102E70000000000000000000000000000000000052
:102E80000000000000000001FC0007FF000FFF80B1
:102E90001FFFC03F07E03C03E07C01F07800F078C2
:102EA00000F07800F07800F07800F07800F07C0115
:102EB000F03E03E03F07E01FFFC00FFF8007FF0069
:102EC00001FC000000000000000000000000000005
:102ED00000000000000000000000000000000000F2
:102EE000000000000000003FFC003FFE003FFF002C
:102EF0003FFF803C0F803C07803C07803C0F803FB9
:102F0000FF803FFF003FFE003FF8003C00003C0018
:102F1000003C00003C00003C00003C00003C000085
:102F20003C00000000000000000000000000000065
:102F30000000000000000000000000000000000091
:102F40000000000000000001FC0007FF000FFF80F0
:102F50001FFFC03F07E03E03E07C01F07800F078FF
:102F600000F07800F07800F07800F07800F07C193C
:102F7000F03E3FE03F0FE01FFFC00FFFC007FFF034
:102F800001FCF800007000003000000000000000AC
:102F90000000000000000000000000000000000031
:102FA000000000000000003FFE003FFF003FFF80E8
:102FB0003FFFC03C07C03C03C03C03C03C07C03FD0
:102FC000FF803FFF803FFF003FF8003C3E003C1F7A
:102FD000003C0F003C0F803C07C03C03C03C03E0BA
:102FE0003C01F000000000000000000000000000B4
:102FF00000000000000000000000000000000000D1
:103000000000000000000003F0000FFC001FFE00A5
:103010003FFE003E1F003C0F003E00003FC0001F6F
:10302000F8000FFE0003FF00007F80000F8078078C
:10303000807C07803E0F803FFF001FFF000FFE00D7
:1030400003F8000000000000000000000000000085
:103050000000000000000000000000000000000070
:10306000000000000000007FFF807FFF807FFF8066
:103070007FFF8001E00001E00001E00001E00001CD
:10308000E00001E00001E00001E00001E00001E0FB
:103090000001E00001E00001E00001E00001E000CB
:1030A00001E000000000000000000000000000003F
:1030B0000000000000000000000000000000000010
:1030C000000000000000003C03C03C03C03C03C003
:1030D0003C03C03C03C03C03C03C03C03C03C03CB9
:1030E00003C03C03C03C03C03C03C03C03C03C03E2
:1030F000C03E03C03F0FC01FFF801FFF800FFF00B7
:1031000003FC0000000000000000000000000000C0
:1031100000000000000000000000000000000000AF
:1031200000000000000000F00780F80F80780F001A
:10313000780F00780F003C1E003C1E003C1E001C57
:103140001C001E3C001E3C001E3C000E38000F7888
:10315000000F780007700007700007F00003E00020
:1031600003E000000000000000000000000000007C
:10317000000000000000000000000000000000004F
:10318000000000000000000000000000F03E07808A
:10319000F03E0780703E0700787F0F0078770F00C1
:1031A00078770F0078770F0038F78E0038E38E00BD
:1031B0003CE39E003CE39E003CE39E001DC1DC001E
:1031C0001DC1DC001DC1DC001DC1DC001F80FC0036
:1031D0000F80F8000F80F8000F80F800000000005A
:1031E00000000000000000000000000000000000DF
:1031F00000000000000000000000000000000000CF
:10320000000000000000003C0F003E1F001E1E00DA
:103210000F3C000F3C0007F80007F80003F0000126
:10322000E00001E00003F00007F00007F8000F3CA9
:10323000000F3C001E1E001E1E003C0F007C0F8075
:10324000780780000000000000000000000000007F
:10325000000000000000000000000000000000006E
:1032600000000000000000F003C0F807C07C0F80E1
:103270003C0F003E1F001E1E000F3C000FFC00070D
:10328000F80003F00003F00001E00001E00001E0BD
:103290000001E00001E00001E00001E00001E000C9
:1032A00001E000000000000000000000000000003D
:1032B000000000000000000000000000000000000E
:1032C000000000000000007FFF007FFF007FFF0084
:1032D0007FFF00001E00003C0000780000F00001AD
:1032E000E00003C00007C0000780000F00001E00C0
:1032F000003C0000780000FFFF00FFFF00FFFF0020
:10330000FFFF0000000000000000000000000000BF
:1033100000000000000000000000000000000000AD
:1033200000003F803F803F803F803C003C003C00ED
:103330003C003C003C003C003C003C003C003C00AD
:103340003C003C003C003C003C003C003F803F8097
:103350003F803F80000000000000000000E0E070BF
:10336000707070383838381C1C1C1C0E0E0E0E077E
:103370000700000000000000000000000000000046
:103380000000FE00FE00FE00FE001E001E001E00EB
:103390001E001E001E001E001E001E001E001E003D
:1033A0001E001E001E001E001E001E00FE00FE006D
:1033B000FE00FE0000000000000000000000000011
:1033C0000000078007800FC00FC00FC01CE01CE08A
:1033D0003CF0387078780000000000000000000029
:1033E00000000000000000000000000000000000DD
:1033F00000000000000000000000000000000000CD
:1034000000000000000000000000000000000000BC
:1034100000000000000000000000000000000000AC
:103420000000000000000000000000000000FFFE9F
:10343000FFFEFFFE00000000000000000000000092
:103440000000F000780038001C00000000000000C0
:10345000000000000000000000000000000000006C
:10346000000000000000000000000000000000005C
:10347000000000000000000000000000000000004C
:103480000000000000000000000000000FE01FF03E
:103490003FF878F87078007801F81FF83E7878786F
:1034A000787878F87FF83FB81F3C000000000000F3
:1034B000000000000000000000000000000000000C
:1034C000000000000000003C00003C00003C000048
:1034D0003C00003C00003CF0003FFC003FFE003E92
:1034E0001E003E1F003C0F003C0F003C0F003C0F35
:1034F000003C0F003E1F003F1E003FFE003FFC004F
:103500003CF000000000000000000000000000008F
:1035100000000000000000000000000000000000AB
:1035200000000000000000000000000007E01FF0A5
:103530003FF83C7C7830780078007800780078009C
:1035400078303C7C3FF81FF807E0000000000000E6
:10355000000000000000000000000000000000006B
:1035600000000000000000001E00001E00001E0001
:10357000001E00001E00079E001FFE003FFE003CD4
:103580003E007C3E00781E00781E00781E00781EEB
:1035900000781E007C3E003C3E003FFE001FFE0007
:1035A000079E000000000000000000000000000076
:1035B000000000000000000000000000000000000B
:1035C00000000000000000000000000007C01FF025
:1035D0003FF83C787838783C7FFC7FFC7FFC7800B3
:1035E00078003C303FFC1FF807E0000000000000BE
:1035F00000000000000000000000000000000000CB
:1036000000000F801F803F803C003C00FF80FF8057
:10361000FF803C003C003C003C003C003C003C0087
:103620003C003C003C003C003C000000000000006E
:10363000000000000000000000000000000000008A
:10364000000000000000000000000000000000007A
:10365000000000000000079E001FDE003FFE003C4F
:103660003E007C3E00781E00781E00781E00781E0A
:1036700000781E007C3E003C7E003FFE001FDE0006
:103680000F9E00001E00603E007FFC003FF8000F10
:10369000F00000000000000000000000000000003A
:1036A000000000000000003C00003C00003C000066
:1036B0003C00003C00003CF8003FFC003FFE003EA8
:1036C0003E003C1E003C1E003C1E003C1E003C1EFA
:1036D000003C1E003C1E003C1E003C1E003C1E0028
:1036E0003C1E000000000000000000000000000080
:1036F000000000000000000000000000003C3C3C16
:1037000000003C3C3C3C3C3C3C3C3C3C3C3C3C3C71
:103710003C0000000000000000000000003C3C3CB9
:1037200000003C3C3C3C3C3C3C3C3C3C3C3C3C3C51
:103730003C3C3CFCF8F000000000000000000000F1
:1037400000003C003C003C003C003C003C3C3C7821
:103750003C703CF03DE03DC03FC03FE03FE03EF00C
:103760003CF03C783C783C3C3C3C000000000000D5
:10377000000000000000000000000000003C3C3C95
:103780003C3C3C3C3C3C3C3C3C3C3C3C3C3C3C3C79
:103790003C000000000000000000000000000000ED
:1037A0000000000000000000000000000000000019
:1037B0000000000000000000000000000000000009
:1037C0003CF87C003FFDFE003FFFFF003E3F1F0036
:1037D0003C1F0F003C1E0F003C1E0F003C1E0F0044
:1037E0003C1E0F003C1E0F003C1E0F003C1E0F0035
:1037F0003C1E0F003C1E0F003C1E0F00000000008E
:1038000000000000000000000000000000000000B8
:1038100000000000000000000000000000000000A8
:103820000000000000000000000000000000000098
:103830000000000000003CF8003DFC003FFE003EA0
:103840003E003C1E003C1E003C1E003C1E003C1E78
:10385000003C1E003C1E003C1E003C1E003C1E00A6
:103860003C1E0000000000000000000000000000FE
:103870000000000000000000000000000000000048
:103880000000000000000000000000000000000038
:1038900000000000000003E0000FF8001FFC003EE5
:1038A0003E003C1E00780F00780F00780F00780F64
:1038B00000780F003C1E003E3E001FFC000FF80089
:1038C00003E0000000000000000000000000000015
:1038D00000000000000000000000000000000000E8
:1038E00000000000000000000000000000000000D8
:1038F0000000000000003CF8003FFC003FFE003EDE
:103900001E003E1F003C0F003C0F003C0F003C0F10
:10391000003C0F003E1F003F1E003FFE003DFC002C
:103920003CF0003C00003C00003C00003C00003C3F
:103930000000000000000000000000000000000087
:103940000000000000000000000000000000000077
:10395000000000000000079E001FFE003FFE003C2C
:103960003E007C3E00781E00781E00781E00781E07
:1039700000781E007C3E003C7E003FFE001FFE00E3
:10398000079E00001E00001E00001E00001E00001A
:103990001E00000000000000000000000000000009
:1039A0000000000000000000000000003DE03FE0DB
:1039B0003FE03E003E003C003C003C003C003C0040
:1039C0003C003C003C003C003C00000000000000CB
:1039D00000000000000000000000000000000000E7
:1039E0000000000000000000000000000FE03FF8B1
:1039F0007FFC783078007E003FC01FF007F800FCA5
:103A0000003C183C7FF83FF80FE000000000000089
:103A100000000000000000000000000000000000A6
:103A2000000004001C003C003C003C00FF80FF80C4
:103A3000FF803C003C003C003C003C003C003C0063
:103A40003C003C003F801F800F8000000000000011
:103A50000000000000000000000000000000000066
:103A60000000000000000000000000000000000056
:103A70000000000000003C1E003C1E003C1E003CFC
:103A80001E003C1E003C1E003C1E003C1E003C1E56
:103A9000003C1E003C1E003E3E003FFE001FFE009C
:103AA0000F9E000000000000000000000000000069
:103AB0000000000000000000000000000000000006
:103AC000000000000000000000000000783C783C8E
:103AD000783C38383C783C781C701C701E700EE0C6
:103AE0000EE00FE007C007C007C0000000000000A4
:103AF00000000000000000000000000000000000C6
:103B000000000000000000000000000000000000B5
:103B1000000000000000F0707870707070707078B5
:103B2000F8F038D8E038D8E038D8E01DDDC01D8D79
:103B3000C01D8DC00D8D800F8F800F07800707007F
:103B40000707000000000000000000000000000067
:103B50000000000000000000000000000000000065
:103B6000000000000000000000000000783C783CED
:103B70003C781EF01EE00FE007C007C007C00FE052
:103B80001EF01EF03C78783C783C000000000000FD
:103B90000000000000000000000000000000000025
:103BA000000000000000000000000000F01EF01EF9
:103BB000783C783C78383C783C781C701C701EF05F
:103BC0000EE00EE007C007C007C007800F807F002F
:103BD0007F007C00000000000000000000000000EA
:103BE0000000000000000000000000007FF87FF8E7
:103BF0007FF8007800F001E003C007800F001E008E
:103C00003C0078007FF87FF87FF80000000000009B
:103C100000000000000000000000000000000000A4
:103C2000000003C007C00FC00E000E000E000E0003
:103C30000E000E000E001E007C0078007C001E00AE
:103C40000E000E000E000E000E000E000E000FC043
:103C500007C003C000000000000000000038383832
:103C600038383838383838383838383838383838D4
:103C700038383838383800000000000000000000F4
:103C8000000078007C007E000E000E000E000E008A
:103C90000E000E000E000F0007C003C007C00F008B
:103CA0000E000E000E000E000E000E000E007E0034
:103CB0007C00780000000000000000000000000010
:103CC00000000000000000000000000000000000F4
:103CD0001E007FC67FFE7FFE61FE007800000000B0
:103CE00000000000000000000000000000000000D4
:103CF00000000000000000000808010078212000FA
:103D000008080100982120000D0D0200B8212000B4
:103D10000F0F0200F82120000F0F020038222000B0
:103D2000181803007822200014140300D822200061
:103D3000060601003823200009090200582320004C
:103D400009090200982320000B0B0200D823200051
:103D50001010020018242000080801005824200038
:103D6000090902007824200008080100B824200076
:103D700008080100D82420000F0F0200F8242000BA
:103D80000F0F0200382520000F0F020078252000B9
:103D90000F0F0200B82520000F0F0200F8252000A9
:103DA0000F0F0200382620000F0F02007826200097
:103DB0000F0F0200B82620000F0F0200F826200087
:103DC0000F0F0200382720000A0A0200782720007F
:103DD0000A0A0200B827200010100200F82720006D
:103DE000101002003828200010100200782820004F
:103DF00011110300B82820001A1A04001829200005
:103E0000131303009829200014140300F82920003C
:103E100014140300582A200014140300B82A2000A8
:103E200012120300182B200011110300782B200020
:103E300015150300D82B200014140300382C200083
:103E400008080100982C20000F0F0200B82C200059
:103E500014140300F82C200011110300582D200029
:103E600015150300B82D200014140300182E20008F
:103E700015150300782E200012120300D82E200002
:103E800015150300382F200014140300982F20006C
:103E900012120300F82F20001212030058302000E5
:103EA00014140300B830200012120300183120004F
:103EB000191904007831200012120300F831200093
:103EC000121203005832200011110300B8322000F2
:103ED00009090200183320000808010058332000A7
:103EE000090902007833200010100200B8332000C6
:103EF0000F0F0200F83320000909020038342000B7
:103F00000F0F02007834200011110300B834200094
:103F10000F0F020018352000111103005835200042
:103F20000F0F0200B835200009090200F835200003
:103F300011110300383620001111030098362000BB
:103F400008080100F8362000080801001837200092
:103F50000F0F0200383720000808010078372000D2
:103F60001A1A040098372000111103001838200095
:103F7000111103007838200011110300D8382000F7
:103F800011110300383920000B0B02009839200072
:103F90000F0F0200D839200009090200183A20004A
:103FA00011110300583A20000F0F0200B83A200008
:103FB00015150300F83A20000F0F0200583B2000AF
:103FC0000F0F0200983B20000E0E0200D83B20008D
:103FD0000B0B0200183C200007070100583C200092
:103FE0000B0B0200783C200010100200B83C2000AF
:103FF00020007E00F83C20000000000000000000CF
:1040000000000000000000000000000000000000B0
:104010000000000000007070700020207070707050
:10402000707070700000000000000080010001004E
:104030001F003F807BC072007400740075C079C09F
:104040003F801F0010001000100020000000000042
:1040500000001E003F00738073807000FE00FE00B1
:10406000380038007000FC80FFC04780000000006E
:10407000000000000000000000000000000021001F
:104080007F80FFC07380618061807380FFC07F800C
:1040900021000000000000000000000000000000FF
:1040A0000000E0C071C071C03B803B801F007FC03A
:1040B0007FC00E007FC07FC00E000E000000000019
:1040C0000000000000000060606060606060000050
:1040D00000606060606060600000000000003C0004
:1040E0007E006300600038007E00CF00C380E18066
:1040F00071803F001E000700630073003F001E0038
:10410000000000CCCC000000000000000000000017
:10411000000000000000000000000F8030606030F0
:1041200047908CC89808980898088CC847906030C9
:1041300030600F80000000000000000000000078E8
:10414000CC0C7CCCCC7C0000000000000000000007
:1041500000000000000000000000000000001980C6
:1041600033007700EE00EE00770033001980000086
:10417000000000000000000000000000000000003F
:10418000000000007FC07FC07FC001C001C001C02F
:1041900001C000000000000000000000000000005E
:1041A000000000000000000000007C7C7C0000009B
:1041B000000000000000000000000F803060603050
:1041C0004F10888888888F088908888848906030D0
:1041D00030600F800000000000000000FFC0FFC042
:1041E00000000000000000000000000000000000CF
:1041F00000000000000000000000000000000000BF
:104200000000000000000038444444380000000072
:1042100000000000000000000000000000000E0090
:104220000E000E007FC07FC07FC00E000E000E008B
:1042300000007FC07FC07FC00000000000000000C1
:1042400000000070D8183870E0F80000000000008E
:104250000000000000000070D8183018D87000006E
:1042600000000000000000000000001C18300000EA
:10427000000000000000000000000000000000003E
:104280000000000000000000738073807380738062
:1042900073807380738073807F807F807000700074
:1042A000700070000000000000003FC07FC0FD8073
:1042B000FD80FD807D803D800D800D800D800D8016
:1042C0000D800D800D800D800D800000000000002D
:1042D000000000007070700000000000000000008E
:1042E00000000000000000000000000000000000CE
:1042F0007818F0000000003070F0303030300000EE
:1043000000000000000000000000003C66666666D9
:10431000663C0000000000000000000000000000FB
:1043200000000000000000000000660033003B8039
:104330001DC01DC03B80330066000000000000006F
:10434000000000000000000000001860386078C025
:1043500018C0198019801B0C031C061C062C0C4C61
:104360000C7E180C0000000000000000000000009F
:10437000000030607060F0C031C0318033003338ED
:10438000066C060C0C1C18381870307C00000000FD
:10439000000000000000000000007030D8601860CD
:1043A00030C01980D980730C031C061C0C2C0C4CDB
:1043B000187E180C00000000000000000000000043
:1043C00000000000000000000E000E000E000000C3
:1043D0000E000E001E003C007800700071C073C01B
:1043E0003F801F000E00060003000F800F800F802B
:1043F0001DC01DC01DC038E03FE03FE07FF0707081
:104400007070E0380000000000000000038003002E
:1044100006000F800F800F801DC01DC01DC038E03A
:104420003FE03FE07FF070707070E0380000000007
:104430000000000007000D8000000F800F800F803B
:104440001DC01DC01DC038E03FE03FE07FF0707030
:104450007070E03800000000000000000E4009C04D
:1044600000000F800F800F801DC01DC01DC038E0F0
:104470003FE03FE07FF070707070E03800000000B7
:10448000000000000CC00CC000000F800F800F80E7
:104490001DC01DC01DC038E03FE03FE07FF07070E0
:1044A0007070E0380000000000000000030004808D
:1044B00004800F800F800F801DC01DC01DC038E01C
:1044C0003FE03FE07FF070707070E0380000000067
:1044D0000000000000000000000000000007FF8056
:1044E0000FFF800EFF801CE0001CE00038FF8038CA
:1044F000FF803FFF807FE0007FE000E0FF80E0FF83
:1045000080C0FF80000000000000000000000000EC
:1045100000000000000007801FE03FE038F07060FE
:10452000700070007000706038F03FE01FE007809E
:10453000078001800F0000000E00060003007FE0EE
:104540007FE07FE0700070007FE07FE07FE0700040
:1045500070007FE07FE07FE00000000000000000CE
:104560000380030006007FE07FE07FE070007000C2
:104570007FE07FE07FE0700070007FE07FE07FE021
:10458000000000000000000007000D8000007FE038
:104590007FE07FE0700070007FE07FE07FE07000F0
:1045A00070007FE07FE07FE000000000000000007E
:1045B0001980198000007FE07FE07FE070007000CC
:1045C0007FE07FE07FE0700070007FE07FE07FE0D1
:1045D0000000000000000000E0703070707070702B
:1045E0007070707070707070000000003830607013
:1045F000707070707070707070707070000000007B
:1046000070D80070707070707070707070707070B2
:1046100000000000D8D800707070707070707070FA
:1046200070707070000000000000000000007F80CB
:104630007FE07FE070F07070FE70FE7070707070E0
:1046400070F07FE07FE07F8000000000000000004D
:104650000E4009C00000707078707C707C707E70B5
:1046600076707770737073F071F071F070F0707035
:104670000000000000000000070003000180078028
:104680001FE03FF03870703870387038703870380C
:1046900038703FF01FE007800000000000000000BD
:1046A00003800300060007801FE03FF03870703879
:1046B000703870387038703838703FF01FE00780FD
:1046C0000000000000000000038006C0000007801A
:1046D0001FE03FF0387070387038703870387038BC
:1046E00038703FF01FE0078000000000000000006D
:1046F0000E4009C0000007801FE03FF0387070389E
:10470000703870387038703838703FF01FE00780AC
:1047100000000000000000000CC00CC0000007807A
:104720001FE03FF03870703870387038703870386B
:1047300038703FF01FE0078000000000000000001C
:104740000000000000000000000000002100738055
:104750003F001E001E003F0073802100000000008B
:1047600000000000000000000000000000080FCC66
:104770001FF83FF0387870F871B8733876387C38A5
:1047800078703FF07FE0CFC04000000000000000E4
:104790000E000600030070707070707070707070A2
:1047A000707070707070707078F03FE03FE00F8054
:1047B000000000000000000003800300060070708D
:1047C00070707070707070707070707070707070E9
:1047D00078F03FE03FE00F800000000000000000A4
:1047E00007000D80000070707070707070707070D5
:1047F000707070707070707078F03FE03FE00F8004
:1048000000000000000000000CC00CC00000707030
:104810007070707070707070707070707070707098
:1048200078F03FE03FE00F80000000000000000053
:104830000380030006007070707038E01DC01DC05A
:104840000F800F8007000700070007000700070020
:1048500000000000000000000000000000007000E8
:1048600070007F807FC07FE070E070E070E07FE0EC
:104870007FC07F807000700000000000000000001A
:104880000000000000001F003F80738073807700ED
:104890007700778073C071C070E074E07FE077804C
:1048A0000000000000000000000000001C000C00E0
:1048B000060000001F003F80638007801F803B8050
:1048C000738073807F803DC0000000000000000006
:1048D00000000000070006000C0000001F003F80E1
:1048E000638007801F803B80738073807F803DC022
:1048F00000000000000000000000000000000E00AA
:104900001B0000001F003F80638007801F803B80EA
:10491000738073807F803DC00000000000000000B5
:104920000000000000003900270000001F003F8049
:10493000638007801F803B80738073807F803DC0D1
:104940000000000000000000000000000000330034
:10495000330000001F003F80638007801F803B8082
:10496000738073807F803DC0000000000000000065
:1049700000000C00120012000C0000001F003F801D
:10498000638007801F803B80738073807F803DC081
:104990000000000000000000000000000000000017
:1049A000000000001E783FFC638E078E0FFE3BFE6A
:1049B000738073CE7FFC3C78000000000000000094
:1049C0000000000000000000000000001E003F008A
:1049D0007B8071007000700071007B803F001E00C2
:1049E0001E0006003C000000000000000E00060053
:1049F000030000001F003F8071C071C07FC07FC0F6
:104A0000700071C03F801F00000000000000000027
:104A100000000000070006000C0000001F003F809F
:104A200071C071C07FC07FC0700071C03F801F0027
:104A300000000000000000000000000000000E0068
:104A40001B0000001F003F8071C071C07FC07FC08D
:104A5000700071C03F801F000000000000000000D7
:104A60000000000000001980198000001F003F8036
:104A700071C071C07FC07FC0700071C03F801F00D7
:104A800000000000000000000000E06030007070D6
:104A9000707070707070707000000000000038302E
:104AA0006000707070707070707070700000000046
:104AB00000000070D800707070707070707070704E
:104AC00000000000000000D8D80070707070707096
:104AD00070707070000000000000000000000E8088
:104AE000070009800F803FC03BC071C071C071C01A
:104AF00071C03B803F801F000000000000000000EC
:104B00000000000000001C801380000077807FC040
:104B100079C071C071C071C071C071C071C071C005
:104B20000000000000000000000000000E00060071
:104B3000030000001F003F807BC071C071C071C0C6
:104B400071C07BC03F801F0000000000000000001B
:104B500000000000070006000C0000001F003F805E
:104B60007BC071C071C071C071C07BC03F801F002D
:104B700000000000000000000000000000000E0027
:104B80001B0000001F003F807BC071C071C071C05E
:104B900071C07BC03F801F000000000000000000CB
:104BA0000000000000001C80138000001F003F80F8
:104BB0007BC071C071C071C071C07BC03F801F00DD
:104BC000000000000000000000000000000019804C
:104BD000198000001F003F807BC071C071C071C090
:104BE00071C07BC03F801F0000000000000000007B
:104BF00000000000000000001C001C001C00000061
:104C0000FF80FF80FF8000001C001C001C000000D3
:104C10000000000000000000000000000000000094
:104C2000000000801EC03F803B8073C077C07DC005
:104C300079C03B803F806F00200000000000000032
:104C4000000000001C000C000600000071C071C0D4
:104C500071C071C071C071C071C073C07FC03DC0F0
:104C60000000000000000000000000000700060037
:104C70000C00000071C071C071C071C071C071C002
:104C800071C073C07FC03DC0000000000000000084
:104C90000000000000000E001B00000071C071C089
:104CA00071C071C071C071C071C073C07FC03DC0A0
:104CB000000000000000000000000000000019805B
:104CC0001980000071C071C071C071C071C071C025
:104CD00071C073C07FC03DC0000000000000000034
:104CE00000000000070006000C000000E0C0E0C06B
:104CF00071C071C031803B801B801F001F000E00FF
:104D00000E001C007C007800000000000000700015
:104D10007000700077007F807BC071C071C071C06F
:104D200071C07BC07F8077007000700070007000E1
:104D3000000000000000198019800000E0C0E0C001
:104D400071C071C031803B801B801F001F000E00AE
:104D50000E001C007C00780005050100FC3F2000CF
:104D600005050100104020000A0A0200244020002E
:104D70000A0A02004C4020000A0A02007440200087
:104D80000A0A02009C40200004040100C4402000E4
:104D90000A0A0200D8402000060601000041200057
:104DA0000D0D020014412000070701003C412000C6
:104DB0000A0A0200504120000B0B0200784120003B
:104DC00006060100A04120000D0D0200B4412000A4
:104DD0000A0A0200DC41200007070100044220000B
:104DE0000A0A020018422000060601004042200084
:104DF0000606010054422000060601006842200019
:104E00000A0A02007C4220000A0A0200A442200092
:104E100005050100CC42200006060100E04220000A
:104E200006060100F44220000707010008432000A5
:104E30000A0A02001C4320000F0F02004443200016
:104E40000F0F02006C4320000F0F0200944320005C
:104E50000B0B0200BC4320000D0D0200E4432000B8
:104E60000D0D02000C4420000D0D02003444200002
:104E70000D0D02005C4420000D0D02008444200052
:104E80000D0D0200AC44200012120300D444200097
:104E90000D0D0200104520000C0C020038452000CA
:104EA0000C0C0200604520000C0C0200884520001C
:104EB0000C0C0200B045200005050100D84520007B
:104EC00005050100EC452000050501000046200015
:104ED00005050100144620000D0D020028462000A3
:104EE0000D0D0200504620000E0E020078462000F4
:104EF0000E0E0200A04620000E0E0200C846200042
:104F00000E0E0200F04620000E0E02001847200090
:104F10000B0B0200404720000E0E020068472000E5
:104F20000D0D0200904720000D0D0200B847200033
:104F30000D0D0200E04720000D0D02000848200082
:104F40000C0C0200304820000C0C020058482000D5
:104F50000C0C0200804820000A0A0200A848200029
:104F60000A0A0200D04820000A0A0200F84820007D
:104F70000A0A0200204920000A0A020048492000CB
:104F80000A0A02007049200010100200984920000F
:104F90000A0A0200C04920000A0A0200E84920006B
:104FA0000A0A0200104A20000A0A0200384A2000B9
:104FB0000A0A0200604A200005050100884A200014
:104FC000050501009C4A200005050100B04A2000AB
:104FD00005050100C44A20000B0B0200D84A20003E
:104FE0000B0B0200004B20000B0B0200284B200093
:104FF0000B0B0200504B20000B0B0200784B2000E3
:105000000B0B0200A04B20000B0B0200C84B200032
:105010000A0A0200F04B20000B0B0200184C200083
:105020000B0B0200404C20000B0B0200684C2000D0
:105030000B0B0200904C20000B0B0200B84C200020
:105040000A0A0200E04C20000B0B0200084D200071
:105050000A0A0200304D2000A000FF00584D200039
:10506000A060200021142100E91421002515210051
:105070002B152100000000000000000014140101A5
:1050800058502000100A0D00000000000000000031
:1050900000000000000000000000000000000070A0
:1050A00070707070707020200070707000000000D0
:1050B000000000000000770077007700770077009D
:1050C00000000000000000000000000000000000E0
:1050D00000000000000000000000000000000CC004
:1050E0000CC01980FFC0FFC019803B803300FFC097
:1050F000FFC03300660066000000000000000000F2
:105100000000000008003E007F00EB80E800E8009F
:105110007C003F000F800B80EB80EB807F003E0027
:10512000080008000000000000000000000000006F
:10513000003C180066300066300066600066600063
:105140003CC00000C000018000019E00033300034A
:1051500033000633000633000C1E00000000000080
:10516000000000000000000000000F003FC039C038
:1051700039C01D800F001F003FB073F071E071F067
:105180003FF81F1000000000000000000000007049
:10519000707070700000000000000000000000004F
:1051A0000000001838383070707070707070707057
:1051B00030303818000000607070303838383838B7
:1051C000383838383070706000000030B4FC307807
:1051D000CC00000000000000000000000000000003
:1051E0000000000000000E000E000E007FC07FC017
:1051F0007FC00E000E000E00000000000000000046
:10520000000000000000000000000000000000009E
:10521000007070701030600000000000000000009E
:1052200000007C7C7C00000000000000000000000A
:10523000000000000000000000707070000000001E
:105240000000001818303030307060606060C0C0FE
:10525000000000000000000000001E003F003300BE
:105260007380738073807380738073807380330066
:105270003F001E00000000000000000000000000D1
:10528000000006000E003E007E006E004E000E0084
:105290000E000E000E000E000E000E0000000000BA
:1052A000000000000000000000001E003F007380AE
:1052B00073800380070007000E001C001C003800EC
:1052C0007F807F80000000000000000000000000E0
:1052D00000001E003F007380738003800F000F00EA
:1052E00003800380738073803F001E000000000075
:1052F0000000000000000000000007000F000F0089
:105300001F00370037006700C700FFC0FFC007005D
:10531000070007000000000000000000000000007F
:1053200000001F001F00380030003E003F00738067
:1053300003800380038073803F001E000000000094
:10534000000000000000000000001F003F803380CC
:1053500070007E007F007380738073807380338061
:105360003F001E00000000000000000000000000E0
:1053700000007F807F800380070006000E000C0085
:105380001C001C0038003800380038000000000005
:10539000000000000000000000001E003F007380BD
:1053A000738073803F001E003300738073807380AE
:1053B0003F001E0000000000000000000000000090
:1053C00000001E003F007300738073807380738041
:1053D0003F801F80038073003F001E00000000001C
:1053E0000000000000000000000038383800000015
:1053F0000038383800000000000000000000383895
:10540000380000000038383808183000000000006C
:10541000000000000000004001C00FC03F00780005
:1054200078003F000FC001C00040000000000000F5
:10543000000000000000000000000000000000006C
:105440007FC07FC07FC0000000007FC07FC07FC0E2
:10545000000000000000000000000000000000004C
:10546000000000000000400070007E001F8003C0AC
:1054700003C01F807E00700040000000000000009C
:10548000000000000000000000001F003F8079C005
:1054900071C003C007800F000E000E0000000E0058
:1054A0000E000E00000000000000000000000000E0
:1054B000000000000001F80007FE001E0F0019DBCD
:1054C0000033FB803639806E39806C31806C3180DE
:1054D0006C73006C770067FE0037B8003801C01E9F
:1054E00007800FFF0003FC000000000000000F8099
:1054F0000F800F801DC01DC01DC038E03FE03FE0A1
:105500007FF070707070E038000000000000000054
:105510000000000000007FC07FE07FF070707070BE
:105520007FE07FC07FE0707070707FF07FE07FC0B1
:1055300000000000000000000000000000000780E4
:105540001FE03FE038F07060700070007000706025
:1055500038F03FE01FE0078000000000000000007E
:105560000000000000007F807FE07FE070F070703E
:10557000707070707070707070F07FE07FE07F808E
:1055800000000000000000000000000000007FE0BC
:105590007FE07FE0700070007FE07FE07FE07000E0
:1055A00070007FE07FE07FE000000000000000006E
:1055B0000000000000007FC07FC07FC0700070004E
:1055C0007F807F807F8070007000700070007000AE
:1055D000000000000000000000000000000007C004
:1055E0001FF03FF038787030700071F871F871F882
:1055F00038383FF81FF007C000000000000000002E
:10560000000000000000707070707070707070703A
:105610007FF07FF07FF070707070707070707070DD
:10562000000000000000000000000070707070704A
:1056300070707070707070700000000000000000EA
:1056400000000380038003800380038003800380C5
:105650000380E380E380FF807F003E0000000000C5
:105660000000000000000000000070F071E071C058
:10567000738077007F007F807B8071C071C070E095
:10568000707070700000000000000000000000005A
:1056900000007000700070007000700070007000FA
:1056A0007000700070007FC07FC07FC000000000ED
:1056B00000000000000000000000783C783C7C7C8A
:1056C0007C7C7C7C76DC76DC76DC76DC739C739C84
:1056D000739C711C0000000000000000000000002E
:1056E0000000707078707C707C707E70767077705F
:1056F000737073F071F071F070F070700000000062
:105700000000000000000000000007801FE03FF0E4
:1057100038707038703870387038703838703FF0C2
:105720001FE00780000000000000000000000000F3
:1057300000007F807FC07FE070E070E07FE07FC08E
:105740007F8070007000700070007000000000002A
:10575000000000000000000000000FC01FE03FF04C
:105760003870703870387038713873F839F83FF025
:105770001FF00FB800100000000000000000000043
:1057800000007FC07FE07FF0707070707FF07FE07E
:105790007F8073C071E070E070F0707800000000EE
:1057A000000000000000000000001F803FC07FE0FC
:1057B00070E070007F003FC00FE000E070E07FE02D
:1057C0003FC01F800000000000000000000000003B
:1057D0000000FFE0FFE0FFE00E000E000E000E00F4
:1057E0000E000E000E000E000E000E000000000065
:1057F0000000000000000000000070707070707009
:1058000070707070707070707070707078F03FE0D1
:105810003FE00F80000000000000000000000000DA
:105820000000E038E03870707070707038E038E078
:105830001DC01DC01DC00F800F800F800000000024
:1058400000000000000000000000000000E1C38034
:10585000E1C380E3E38073670073670077770077C5
:1058600077007637007637003E3E003E3E003C1E15
:10587000003C1E00000000000000000000000000CE
:1058800000000000000070E070E039C019801F8047
:105890000F000F000F001F80198039C070E070E00A
:1058A0000000000000000000000000000000707018
:1058B000707038E01DC01DC00F800F80070007000A
:1058C00007000700070007000000000000000000BC
:1058D0000000000000007FC07FC07FC00380070081
:1058E0000E001E001C0038007000FFC0FFC0FFC08B
:1058F00000000000000000000000007C7C7C707054
:105900007070707070707070707C7C7C000000C073
:10591000C0606060607030303030181800000000E7
:10592000000000F8F8F8383838383838383838385F
:1059300038F8F8F80000000000000E000E001F000C
:105940001B003B80318071C000000000000000009F
:105950000000000000000000000000000000000047
:105960000000000000000000000000000000000037
:105970000000000000000000000000000000000027
:10598000FFC0FFC0000000E0603000000000000029
:105990000000000000000000000000000000000007
:1059A000000000001F003F80638007801F803B8055
:1059B000738073807F803DC0000000000000000005
:1059C00000000000000070007000700077007F8011
:1059D0007BC071C071C071C071C07BC07F80770017
:1059E00000000000000000000000000000000000B7
:1059F000000000001E003F007B80710070007000FE
:105A000071007B803F001E000000000000000000CD
:105A100000000000000001C001C001C01DC03FC067
:105A20007BC071C071C071C071C07BC03FC01DC060
:105A30000000000000000000000000000000000066
:105A4000000000001F003F8071C071C07FC07FC098
:105A5000700071C03F801F000000000000000000C7
:105A60000000003C7C70FCFC707070707070707096
:105A70000000000000000000000000000000000026
:105A80001DC03FC07BC071C071C071C071C07BC000
:105A90003FC01DC001C071C07F803F0000000000FA
:105AA000000070007000700077807FC079C071C006
:105AB00071C071C071C071C071C071C000000000C0
:105AC0000000000000000070700070707070707056
:105AD0007070707000000000000000707000707046
